:04000000FAEF02F021
:08000800046ED8CF05F0E0CF33
:1000100006F00001E9CF0CF0EACF07F0E1CF08F0DD
:10002000E2CF09F0D9CF0AF0DACF0BF0F3CF12F01C
:10003000F4CF13F0FACF14F0F5CF15F0F6CF16F099
:10004000F7CF17F000C00EF001C00FF002C010F0A3
:1000500003C011F0F2AA30EF00F0F2B461EF00F04B
:100060000EC000F00FC001F010C002F011C003F08C
:100070000CC0E9FF07C0EAFF078E08C0E1FF09C016
:10008000E2FF0AC0D9FF0BC0DAFF12C0F3FF13C0B2
:10009000F4FF14C0FAFF15C0F5FF16C0F6FF17C035
:1000A000F7FF045006C0E0FF05C0D8FF1000F76A54
:1000B000BE0FF66E000EF7220900F5501200280C54
:1000C0000106D76AD66A96908D7096928D72F294D8
:1000D00030EF00F044656765723A256C64000C00EF
:1000E000466174696820556E6976657273697479C2
:1000F00000000A526F626F74204B756C7562752038
:1001000027313500EA6A300EE96EEF500DE0020E3D
:10011000016E006A002EFED7012EFBD7970E006EEF
:10012000002EFED7EF2EF3D7120037B002D08C94FA
:1001300001D08C84959437B202D08C9601D08C86F5
:10014000959637B402D08C9801D08C88959837B6A4
:1001500002D08C9A01D08C8A959A000095928C825C
:1001600000D000D095928C92120095908C90270E22
:10017000006E002EFED700D0345203E095908C80A4
:1001800002D095908C90000095928C923538366E06
:100190000F0E361636C037F0C8DF35500F0B366EEF
:1001A000376EC3DF120095908C9095928C920F0E53
:1001B000306EA8DF2D6A2D50020808E3030E376E5B
:1001C000B4DF050E306E9EDF2D2AF5D7020E376E96
:1001D000ACDF2D6A2D5003080CE3036A2D5067DF56
:1001E0002E6E346A356EC1DF050E306E8BDF2D2A20
:1001F000F1D72AEF03F00900F6CF30F0F7CF31F056
:10020000F5509EA8FED7AD6E30C0F6FF31C0F7FFA7
:100210002F2EF1D762EF03F0EACF37F0E9CF36F0B7
:1002200030AE08D0368E36A8362A2F1E301E2F2A22
:10023000D8B4302A3038F009326E3226E20F336EED
:10024000320F356E30500F0B332633263526E90F2B
:10025000346E342634262F380F0B342635263436A8
:100260003536351E35362F500F0B35263236070EF4
:10027000316E0A0E34063526FDE333063426FDE3DF
:1002800032063326FDE331063226FDE3EA6A310EFB
:10029000E96E070E3614369CED52361407E136B877
:1002A000EE5236B803D0200E006E20D0E926000EA4
:1002B000EA22E950350803E1EA5201E1368CEF50B9
:1002C000006E08E136BC06D036B814D036B602D07F
:1002D000200E0BD036AE06D02D0E006EED50369CA3
:1002E000369E04D036863698300E002600509EA8E2
:1002F000FED7AD6EEE5036ACDCD769EF03F083BCB1
:1003000003D09292898202D09292899283BE03D0C6
:1003100096948D8402D096948D94320E306EF2DED7
:100320006AEF03F0312C01D003D0400E326E01D0C1
:10033000326A010E305C322632508009336E346AE4
:10034000356E13DFC4EF01F02F500C0A05E0060AEA
:100350000BE0020A0FE013D0346A010E356E05DFA0
:10036000020E306ECFDE10D0010E306E020E316EF6
:10037000D9D70AD0346A100E356EF7DE05D0010EDB
:10038000346E2FC035F0F1DED0EF01F00900F552E8
:100390000CE0F6CF2DF0F7CF2EF0F5CF2FF0D4D71D
:1003A0002DC0F6FF2EC0F7FFF1D71200DE0EF66E5D
:1003B000000EF76EEBDFE00EF66E000EF76EE6DF76
:1003C000F20EF66E000EF76EE1DF6BEF03F0936A4C
:1003D0008A6A939E8A8E938681A605D0140E306E0B
:1003E00091DE010E196E938481A405D0140E306E37
:1003F00089DE020E196E938281A205D0140E306E32
:1004000081DE030E196E938081A005D0140E306E2C
:1004100079DE0A0E196E939E8A9E939C8A8C93862F
:1004200081A605D0140E306E6DDE040E196E938415
:1004300081A405D0140E306E65DE050E196E938210
:1004400081A205D0140E306E5DDE060E196E93800B
:1004500081A005D0140E306E55DE0B0E196E939CE4
:100460008A9C939A8A8A938681A605D0140E306E50
:1004700049DE070E196E938481A405D0140E306EE8
:1004800041DE080E196E938281A205D0140E306EE3
:1004900039DE090E196E938081A005D0140E306EDE
:1004A00031DE0C0E196E939A8A9A93988A889386F5
:1004B00081A605D0140E306E25DE0E0E196E9384C3
:1004C00081A404D0140E306E1DDE196A938281A2BD
:1004D00005D0140E306E16DE0F0E196E938081A0BB
:1004E00005D0140E306E0EDE0D0E196E93988A989C
:1004F00019C001F06CEF03F089889298898A929A6A
:10050000036A2D501A0FE96E000E0320EA6EEFCF3A
:100510002EF02EB002D0899601D089869296036A79
:100520002D501A0FE96E000E0320EA6EEFCF2EF069
:100530002EB202D0899401D089849294036A2D50FE
:100540001A0FE96E000E0320EA6EEFCF2EF02EB4E4
:1005500002D08B9201D08B829492036A2D501A0F95
:10056000E96E000E0320EA6EEFCF2EF02EB602D019
:100570008B9401D08B849494036A2D501A0FE96EEA
:10058000000E0320EA6EEFCF2EF02EB802D08B962D
:1005900001D08B869496036A2D501A0FE96E000ED7
:1005A0000320EA6EEFCF2EF02EBA02D08B9801D046
:1005B0008B889498036A2D501A0FE96E000E032061
:1005C000EA6EEFCF2EF02EBC02D08B9A01D08B8A30
:1005D000949A036A2D501A0FE96E000E0320EA6EFA
:1005E000EFCF2EF02EBE02D08B9001D08B80949056
:1005F00071EF03F0F86AD09E078E0C0EAF6EA20E5C
:10060000AC6E900EAB6E196A2C6A2B6AC180C182E7
:10061000C184C1963F0E1A6E060E1B6E5B0E1C6ED9
:100620004F0E1D6E660E1E6E6D0E1F6E7D0E206EC1
:10063000070E216E7F0E226E6F0E236E770E246ED4
:100640002568390E266EBF0E276E760E286E490E6F
:10065000296EA9D596908D8096928D92C00E956E3A
:100660009698C69A949A94889496010EC66E000E37
:10067000C76ECD6ACA6E000ECB6ED190830ED56E5A
:10068000F28AC00EF212C190C182C184C186C19C9F
:10069000C28CC28EC18EC280000E016EC250C70BCA
:1006A0000110C26EC284C2B4FED7C4CF03F0C3CF60
:1006B0002DF0C4CF2EF0D40EF66E000EF76E060E9F
:1006C0002F6E99D5100EE96E2EC030F02DC02FF090
:1006D000A3D515D66BD67BD601C019F019C02DF065
:0606E0000BD7E0D7030078
:020000040030CA
:0E00000000220D0E000181000FC00FE00F4026
:00000001FF
;PIC18F452
;CRC=D772  CREATED="09-May-15 13:40"
